:020000040000fa
:080000000001040000000000f3
:020000040000fa
:04000800d001000023
:020000040000fa
:04000c00d00100001f
:020000040000fa
:04001000d00100001b
:020000040000fa
:04001400d001000017
:020000040000fa
:04001800d001000013
:020000040000fa
:04001c00d00100000f
:020000040000fa
:04002000d00100000b
:020000040000fa
:04002400d001000007
:020000040000fa
:0400280018030000b9
:020000040000fa
:04002c00d0010000ff
:020000040000fa
:04003000d0010000fb
:020000040000fa
:04003400d0010000f7
:020000040000fa
:04003800d0010000f3
:020000040000fa
:04003c00d0010000ef
:020000040000fa
:04004000d0010000eb
:020000040000fa
:04004400d0010000e7
:020000040000fa
:04004800d0010000e3
:020000040000fa
:04004c00d0010000df
:020000040000fa
:04005000d0010000db
:020000040000fa
:04005400d0010000d7
:020000040000fa
:04005800d0010000d3
:020000040000fa
:04005c00d0010000cf
:020000040000fa
:04006000d0010000cb
:020000040000fa
:04006400d0010000c7
:020000040000fa
:04006800d0010000c3
:020000040000fa
:04006c00d0010000bf
:020000040000fa
:04007000d0010000bb
:020000040000fa
:04007400d0010000b7
:020000040000fa
:04007800d0010000b3
:020000040000fa
:04007c00d0010000af
:020000040000fa
:04008000d0010000ab
:020000040000fa
:04008400d0010000a7
:020000040000fa
:04008800c8010000ab
:020000040000fa
:04008c00d00100009f
:020000040000fa
:04009000d00100009b
:020000040000fa
:04009400d001000097
:020000040000fa
:04009800d001000093
:020000040000fa
:04009c00d00100008f
:020000040000fa
:0400a000d00100008b
:020000040000fa
:0400a400d001000087
:020000040000fa
:0400a800d001000083
:020000040000fa
:0400ac00d00100007f
:020000040000fa
:0400b000d00100007b
:020000040000fa
:0400b400d001000077
:020000040000fa
:0400b800d001000073
:020000040000fa
:0400bc00d00100006f
:020000040000fa
:0400c000d00100006b
:020000040000fa
:0400c400d001000067
:020000040000fa
:0400c800d001000063
:020000040000fa
:0400cc00d00100005f
:020000040000fa
:0400d000d00100005b
:020000040000fa
:0400d400d001000057
:020000040000fa
:0400d800d001000053
:020000040000fa
:04010800d001000022
:020000040000fa
:04010c00d00100001e
:020000040000fa
:04011000d00100001a
:020000040000fa
:04011400d001000016
:020000040000fa
:04011800d001000012
:020000040000fa
:04011c00d00100000e
:020000040000fa
:04012000d00100000a
:020000040000fa
:04012400d001000006
:020000040000fa
:0401280018030000b8
:020000040000fa
:04012c00d0010000fe
:020000040000fa
:04013000d0010000fa
:020000040000fa
:04013400d0010000f6
:020000040000fa
:04013800d0010000f2
:020000040000fa
:04013c00d0010000ee
:020000040000fa
:04014000d0010000ea
:020000040000fa
:04014400d0010000e6
:020000040000fa
:04014800d0010000e2
:020000040000fa
:04014c00d0010000de
:020000040000fa
:04015000d0010000da
:020000040000fa
:04015400d0010000d6
:020000040000fa
:04015800d0010000d2
:020000040000fa
:04015c00d0010000ce
:020000040000fa
:04016000d0010000ca
:020000040000fa
:04016400d0010000c6
:020000040000fa
:04016800d0010000c2
:020000040000fa
:04016c00d0010000be
:020000040000fa
:04017000d0010000ba
:020000040000fa
:04017400d0010000b6
:020000040000fa
:04017800d0010000b2
:020000040000fa
:04017c00d0010000ae
:020000040000fa
:04018000d0010000aa
:020000040000fa
:04018400d0010000a6
:020000040000fa
:04018800c8010000aa
:020000040000fa
:04018c00d00100009e
:020000040000fa
:04019000d00100009a
:020000040000fa
:04019400d001000096
:020000040000fa
:04019800d001000092
:020000040000fa
:04019c00d00100008e
:020000040000fa
:0401a000d00100008a
:020000040000fa
:0401a400d001000086
:020000040000fa
:0401a800d001000082
:020000040000fa
:0401ac00d00100007e
:020000040000fa
:0401b000d00100007a
:020000040000fa
:0401b400d001000076
:020000040000fa
:0401b800d001000072
:020000040000fa
:0401bc00d00100006e
:020000040000fa
:0401c000d00100006a
:020000040000fa
:0401c400d001000066
:020000040000fa
:0401c800d001000062
:020000040000fa
:0401cc00d00100005e
:020000040000fa
:0401d000d00100005a
:020000040000fa
:0401d400d001000056
:020000040000fa
:0401d800d001000052
:020000040000fa
:10020000af8020000eff20000e01880000000000db
:10021000000020000000e000020032000001200089
:1002200020028800140007005f0007000000e000c3
:1002300003003a00c0362000010020000200370011
:100240000000200001002000810f7000010032003a
:1002500014000700000020000000e000020032004f
:1002600000000200000000009a02020000000000ee
:100270000040da000000fe004440a9008000200099
:100280000000e0000300320000002000a001880010
:100290004440a800000006008a1f78008b1f7800e9
:1002a0000000060091018800800478000000eb0047
:1002b0001a003700e284440032a0b4009905ba0065
:1002c000e284440032a0b4009906ba00e2844400fb
:1002d00032a0b4000006eb00476fde00fd07b2005d
:1002e000636ce10003003a00ebff07000000eb0045
:1002f0000a003700606ce10004003a00005deb008a
:100300008b05e900fdff3e00040037006168e10055
:10031000010032000086eb000b00070019c7ba008d
:100320001905ba000e04e00003003a000a00e000dc
:10033000e0ff3a0000000600fe07b2009e018800c0
:100340008a047800f5ff3700395dba008b05e900b3
:100350000c003200295dba008b05e900080032006c
:100360000c00e00003003a00e284440032a0b40034
:10037000f5ff370019ddba008b05e900faff3a00f6
:100380008904e800e184440032a0b40000000600c3
:100390000000fa008700a9000080fa000040060073
:0c03a0000040da000000fe000000050034
:020000040000fa
:1003ac00436f00006e740000656f00003a0000009f
:020000040000fa
:1003bc000008b3004a020200000000006e020200b6
:1003cc000000000000000600811f7800800078000b
:1003dc00314078000004e000060032004a020200be
:1003ec00000000008402020000000000ee01040086
:1003fc0000000000cf00780000000600020008009a
:10040c0006000000f00020005c0302000000000069
:10041c00000320006e02020000000000000000003b
:10042c004a02020000000000800320006e0202005d
:10043c00000000004a0202000000000080002000c2
:10044c006e020200000000004a02020000000000e0
:10045c00100020006e020200000000004a020200a0
:10046c0000000000600020006e020200000000008e
:10047c004a02020000000000f00020006e020200a0
:10048c000000000000000600e082a900000000004f
:10049c00c6e2ef0000000000e0a2a800000000008f
:1004ac00d502a80000000000c8e2af005a02040008
:1004bc0000000000d502a90000000000e0a2a90085
:1004cc0000000000c662ef00000000000000060003
:1004dc00e082a90000000000e0a2a90000000000da
:1004ec00d502a80000000000c8e2b7000000000020
:1004fc00d502a9000000000000000600e082a80060
:10050c0000000000e0a2a90000000000d502a80035
:10051c0000000000c8e2b70000000000d502a900ee
:10052c0000000000000006000000fa002200070096
:10053c00b2ff0700400020009dff0700601d28004f
:10054c00a1ff07000068ef000168ef000268ef00f0
:10055c000368ef001200070003c8bf000043b0009f
:10056c0004e8b70002c8bf000043b00005e8b700bc
:10057c0001c8bf000043b00006e8b70000c8bf00c8
:10058c000043b00007e8b7000868ef0060042000e3
:10059c0087ff0700408020008bff0700eeff37002d
:1005ac000000fa008400a9008200a8008c00a800ba
:1005bc000080fa00000006000000fa00d422ef00d0
:1005cc0000000000d622ef0000000000d302a900ba
:1005dc0000000000e022ef0000000000e222ef002b
:1005ec0000000000de82a90000000000dea2a900cd
:1005fc0000000000dec2a80000000000c822ef00ce
:10060c0000000000ca22ef0000000000c622ef002c
:10061c00000000000080eb00401588000080fa000c
:10062c0000000600801f7800d722aa0000000000fe
:10063c000068ec00a00020000048e3000d003a0028
:10064c000068ef000168ec000148e30009003a0083
:10065c000168ef000268ec000248e30005003a0074
:10066c000268ef000368ec000348e30001003a0065
:10067c000368ef008400a9004f00780000400600da
:10068c00801f7800811f7800a10020000000eb0083
:10069c000000e900feff3a008100e900fbff3a0090
:1006ac00cf0078004f00780000000600811f780012
:1006bc00612620008100e900feff3a000000e900fd
:0c06cc00fbff3a00cf00780000000600a1
:020000040000fa
:1006d800000800000a000000000000000000000000
:020000040000fa
:0200000401f009
:04000000e0b9000063
:020000040000fa
:0200000401f009
:04000400ff7f00007a
:020000040000fa
:0200000401f009
:04000800feff0000f7
:020000040000fa
:0200000401f009
:04001400ffffff00eb
:00000001FF
