:020000040000fa
:080000000001040000000000f3
:020000040000fa
:04000800d001000023
:020000040000fa
:04000c00d00100001f
:020000040000fa
:04001000d00100001b
:020000040000fa
:04001400d001000017
:020000040000fa
:04001800d001000013
:020000040000fa
:04001c00d00100000f
:020000040000fa
:04002000d00100000b
:020000040000fa
:04002400d001000007
:020000040000fa
:040028004a05000085
:020000040000fa
:04002c00d0010000ff
:020000040000fa
:04003000d0010000fb
:020000040000fa
:04003400a005000023
:020000040000fa
:04003800d0010000f3
:020000040000fa
:04003c00d0010000ef
:020000040000fa
:04004000a80500000f
:020000040000fa
:04004400d0010000e7
:020000040000fa
:04004800d0010000e3
:020000040000fa
:04004c00b0050000fb
:020000040000fa
:04005000d0010000db
:020000040000fa
:04005400d0010000d7
:020000040000fa
:04005800d0010000d3
:020000040000fa
:04005c00d0010000cf
:020000040000fa
:04006000d0010000cb
:020000040000fa
:04006400d0010000c7
:020000040000fa
:040068005a05000035
:020000040000fa
:04006c00d0010000bf
:020000040000fa
:04007000d0010000bb
:020000040000fa
:04007400d0010000b7
:020000040000fa
:04007800d0010000b3
:020000040000fa
:04007c00d0010000af
:020000040000fa
:04008000d0010000ab
:020000040000fa
:040084006a05000009
:020000040000fa
:04008800c8010000ab
:020000040000fa
:04008c00d00100009f
:020000040000fa
:04009000d00100009b
:020000040000fa
:04009400d001000097
:020000040000fa
:04009800d001000093
:020000040000fa
:04009c00d00100008f
:020000040000fa
:0400a000d00100008b
:020000040000fa
:0400a400d001000087
:020000040000fa
:0400a800d001000083
:020000040000fa
:0400ac00d00100007f
:020000040000fa
:0400b000d00100007b
:020000040000fa
:0400b400d001000077
:020000040000fa
:0400b800d001000073
:020000040000fa
:0400bc00d00100006f
:020000040000fa
:0400c000d00100006b
:020000040000fa
:0400c400d001000067
:020000040000fa
:0400c800d001000063
:020000040000fa
:0400cc00d00100005f
:020000040000fa
:0400d000d00100005b
:020000040000fa
:0400d400d001000057
:020000040000fa
:0400d800d001000053
:020000040000fa
:04010800d001000022
:020000040000fa
:04010c00d00100001e
:020000040000fa
:04011000d00100001a
:020000040000fa
:04011400d001000016
:020000040000fa
:04011800d001000012
:020000040000fa
:04011c00d00100000e
:020000040000fa
:04012000d00100000a
:020000040000fa
:04012400d001000006
:020000040000fa
:040128004a05000084
:020000040000fa
:04012c00d0010000fe
:020000040000fa
:04013000d0010000fa
:020000040000fa
:04013400a005000022
:020000040000fa
:04013800d0010000f2
:020000040000fa
:04013c00d0010000ee
:020000040000fa
:04014000a80500000e
:020000040000fa
:04014400d0010000e6
:020000040000fa
:04014800d0010000e2
:020000040000fa
:04014c00b0050000fa
:020000040000fa
:04015000d0010000da
:020000040000fa
:04015400d0010000d6
:020000040000fa
:04015800d0010000d2
:020000040000fa
:04015c00d0010000ce
:020000040000fa
:04016000d0010000ca
:020000040000fa
:04016400d0010000c6
:020000040000fa
:040168005a05000034
:020000040000fa
:04016c00d0010000be
:020000040000fa
:04017000d0010000ba
:020000040000fa
:04017400d0010000b6
:020000040000fa
:04017800d0010000b2
:020000040000fa
:04017c00d0010000ae
:020000040000fa
:04018000d0010000aa
:020000040000fa
:040184006a05000008
:020000040000fa
:04018800c8010000aa
:020000040000fa
:04018c00d00100009e
:020000040000fa
:04019000d00100009a
:020000040000fa
:04019400d001000096
:020000040000fa
:04019800d001000092
:020000040000fa
:04019c00d00100008e
:020000040000fa
:0401a000d00100008a
:020000040000fa
:0401a400d001000086
:020000040000fa
:0401a800d001000082
:020000040000fa
:0401ac00d00100007e
:020000040000fa
:0401b000d00100007a
:020000040000fa
:0401b400d001000076
:020000040000fa
:0401b800d001000072
:020000040000fa
:0401bc00d00100006e
:020000040000fa
:0401c000d00100006a
:020000040000fa
:0401c400d001000066
:020000040000fa
:0401c800d001000062
:020000040000fa
:0401cc00d00100005e
:020000040000fa
:0401d000d00100005a
:020000040000fa
:0401d400d001000056
:020000040000fa
:0401d800d001000052
:020000040000fa
:10020000cf8020000eff20000e01880000000000bb
:10021000000020000000e000020032000001200089
:1002200020028800140007005f0007000000e000c3
:1002300003003a00005c20000100200002003700ab
:100240000000200001002000810f7000010032003a
:1002500014000700000020000000e000020032004f
:100260000000020000000000f20302000000000095
:100270000040da000000fe004440a900c004200055
:100280000000e0000300320000002000a001880010
:100290004440a800000006008a1f78008b1f7800e9
:1002a0000000060091018800800478000000eb0047
:1002b0001a003700e284440032a0b4009905ba0065
:1002c000e284440032a0b4009906ba00e2844400fb
:1002d00032a0b4000006eb00476fde00fd07b2005d
:1002e000636ce10003003a00ebff07000000eb0045
:1002f0000a003700606ce10004003a00005deb008a
:100300008b05e900fdff3e00040037006168e10055
:10031000010032000086eb000b00070019c7ba008d
:100320001905ba000e04e00003003a000a00e000dc
:10033000e0ff3a0000000600fe07b2009e018800c0
:100340008a047800f5ff3700395dba008b05e900b3
:100350000c003200295dba008b05e900080032006c
:100360000c00e00003003a00e284440032a0b40034
:10037000f5ff370019ddba008b05e900faff3a00f6
:100380008904e800e184440032a0b40000000600c3
:100390000000fa008700a9000080fa000040060073
:0c03a0000040da000000fe000000050034
:020000040000fa
:1003ac0050690000736f0000203200000042000012
:1003bc00616a00006f3a0000207000006973000051
:1003cc006f20000031000000426100006a6f0000e5
:1003dc003a200000506c0000616e00007461000057
:1003ec0020620000616a000061000000537500008b
:1003fc00626500003a20000070690000736f000015
:10040c00203200000053000075620000653a0000c5
:10041c0020700000697300006f20000031000000a4
:10042c00506c0000616e00007461000020620000de
:08043c00616a0000610000008c
:020000040000fa
:100444000008b30026030200000000008803020035
:1004540000000000000006000008b300fa020200d9
:10046400000000004a030200000000000000060033
:10047400811f780080007800314078000004e0009b
:1004840006003200fa020200000000009e0302008f
:10049400000000003e02040000000000cf007800cd
:1004a40000000600811f7800800078003140780049
:1004b4000004e000060032002603020000000000f1
:1004c400dc030200000000005802040000000000e9
:1004d400cf007800000006000200080006000000bb
:1004e400f00020009005020000000000000320003e
:1004f4008803020000000000000000002603020040
:1005040000000000800320008803020000000000b7
:10051400260302000000000080002000880302007f
:10052400000000002603020000000000100020006c
:1005340088030200000000002603020000000000ff
:10054400600020008803020000000000260302006f
:1005540000000000f00020008803020000000000fa
:10056400000006000200080006000000f000200061
:100574009005020000000000000320004a0302006e
:100584000000000000000000fa0202000000000069
:10059400800320004a03020000000000fa02020067
:1005a40000000000800020004a0302000000000058
:1005b400fa02020000000000100020004a030200ba
:1005c40000000000fa0202000000000060002000a9
:1005d4004a03020000000000fa02020000000000ca
:1005e400f00020004a0302000000000000000600a2
:1005f400c602f800801f7800000f2000c622b70052
:1006040000000000e082a90000000000e0a2a800b1
:1006140000000000c842a80000000000c8e2af00cb
:100624001003040000000000c842a90000000000fc
:10063400e0a2a900000000004f007800c602f90003
:100644000000000000000600e082a9000000000095
:10065400c6e2ef0000000000e0a2a80000000000d5
:10066400d502a80000000000c8e2af003603040071
:1006740000000000d502a90000000000e0a2a900cb
:1006840000000000c662ef00000000000000060049
:10069400811f7800e082a90000000000e0a2a90008
:1006a40000000000c842a80000000000800078009c
:1006b400f0f02f00c822b60000000000000f200058
:1006c40001006000c822b70000000000c842a90071
:1006d40000000000c842a80000000000f0f02f0055
:1006e400c822b60000000000f000200001006000f5
:1006f4004400de00c822b70000000000c842a90080
:1007040000000000cf00780000000600e082a9008d
:1007140000000000e0a2a90000000000d502a8002b
:1007240000000000c8e2b70000000000d502a900e4
:100734000000000000000600811f7800e082a8008d
:1007440000000000e0a2a90000000000c842a800c8
:100754000000000080007800f0f02f00c822b600ee
:1007640000000000000f200001006000c822b70054
:1007740000000000c842a90000000000c842a80010
:1007840000000000f0f02f00c822b60000000000b6
:10079400f0002000010060004400de00c822b70021
:1007a40000000000c842a90000000000cf0078004b
:1007b40000000600e082a80000000000e0a2a900fa
:1007c40000000000d502a80000000000c8e2b70045
:1007d40000000000d502a90000000000000006008f
:1007e4000000fa0085000700200007003aff070018
:1007f4001500070073000700010037000000000027
:1008040010408000e10f5000fcff3a0000408000df
:10081400e10f500003003a00504080003d00070003
:100824000700370000408000e20f500003003a0048
:1008340050408000180007000100370054000700f2
:100844000228ef00eeff37000000fa00004a200003
:10085400601088000000280070108800b00020009c
:10086400a01088000080fa00000006000000fa00d2
:100874000021ef0040382000100888000421ef0018
:100884000621ef0040382000600888001021ef00a6
:100894000080fa00000006000200fa00000f780051
:1008a4008460a9008c60a80005e1a800c902a80022
:1008b40000000000504080000000e00003003a0007
:1008c400601d2800f7fe0700080037005040800034
:1008d400e10f500003003a00d01d2800f1fe07008c
:1008e40002003700a01e2800eefe07008c60a9005d
:1008f40005e1a900c902a9000000000052ff070099
:100904001000200081ff07004fff07000080fa005d
:10091400000006000200fa00000f78008460a900bd
:100924008c60a80005e1a800c902a900000000002d
:10093400504080000000e00003003a00c01f28007f
:10094400d8fe07000800370050408000e10f500037
:1009540003003a0090202800d2fe0700020037006e
:1009640060212800cffe07008c60a90005e1a900e2
:10097400c902a9000000000033ff07001000200096
:1009840062ff070030ff07000080fa000000060045
:100994000000fa0084c0a9008cc0a80011e1a800de
:1009a400c922a80052000700c922a9008cc0a900ce
:1009b40011e1a900c922a900000000000080fa008a
:1009c400000006000000fa008400a9008200a800cc
:1009d4008c00a8008600a9008220a8008e00a80030
:1009e40086e0a9008240a8008ee0a8008520a90026
:1009f4008d20a8000080fa00000006000000fa0024
:100a0400d422ef0000000000d622ef000000000016
:100a1400d302a80000000000d322a80000000000b8
:100a2400e022ef0000000000e222ef0000000000de
:100a3400de82a90000000000dea2a9000000000080
:100a4400dec2a80000000000c822ef000000000081
:100a5400ca22ef0000000000c622ef0000000000e0
:100a64000080eb0040158800ce22ef00000000005b
:100a7400d022ef0000000000cda2a9000000000079
:100a8400cdc2a800000000000080fa0000000600ab
:100a9400801f7800e2c2aa000000000000002000cd
:100aa400504088008400a9004f00780000400600f0
:100ab400801f7800d702aa00000000001000200068
:100ac400504088008600a9004f00780000400600ce
:100ad400801f7800d722aa00000000002000200018
:100ae4005040880086e0a9004f00780000400600ce
:100af400801f7800811f7800a10020000000eb0017
:100b04000000e900feff3a008100e900fbff3a0023
:100b1400cf0078004f00780000000600811f7800a5
:100b2400612620008100e900feff3a000000e90090
:100b3400fbff3a00cf00780000000600cb02aa00b9
:100b4400000000008460a90000400600cb22aa0037
:100b54000000000084c0a90000400600801f780047
:100b64009010800000408800100020001040880091
:0c0b74008520a9004f007800004006001a
:020000040000fa
:100b8000000800000c000000000000000000000051
:020000040000fa
:0200000401f009
:04000000e0b9000063
:020000040000fa
:0200000401f009
:04000400ff7f00007a
:020000040000fa
:0200000401f009
:04000800feff0000f7
:020000040000fa
:0200000401f009
:04001400ffffff00eb
:00000001FF
