:020000040000fa
:080000000001040000000000f3
:020000040000fa
:04000800d001000023
:020000040000fa
:04000c00d00100001f
:020000040000fa
:04001000d00100001b
:020000040000fa
:04001400d001000017
:020000040000fa
:04001800d001000013
:020000040000fa
:04001c00d00100000f
:020000040000fa
:04002000d00100000b
:020000040000fa
:04002400d001000007
:020000040000fa
:04002800d001000003
:020000040000fa
:04002c00d0010000ff
:020000040000fa
:04003000d0010000fb
:020000040000fa
:040034005c03000069
:020000040000fa
:04003800d0010000f3
:020000040000fa
:04003c00d0010000ef
:020000040000fa
:04004000d0010000eb
:020000040000fa
:04004400d0010000e7
:020000040000fa
:04004800d0010000e3
:020000040000fa
:04004c00d0010000df
:020000040000fa
:04005000d0010000db
:020000040000fa
:04005400d0010000d7
:020000040000fa
:04005800d0010000d3
:020000040000fa
:04005c00d0010000cf
:020000040000fa
:04006000d0010000cb
:020000040000fa
:04006400d0010000c7
:020000040000fa
:04006800d0010000c3
:020000040000fa
:04006c00d0010000bf
:020000040000fa
:04007000d0010000bb
:020000040000fa
:04007400d0010000b7
:020000040000fa
:04007800d0010000b3
:020000040000fa
:04007c00d0010000af
:020000040000fa
:04008000d0010000ab
:020000040000fa
:04008400d0010000a7
:020000040000fa
:04008800c8010000ab
:020000040000fa
:04008c00d00100009f
:020000040000fa
:04009000d00100009b
:020000040000fa
:04009400d001000097
:020000040000fa
:04009800d001000093
:020000040000fa
:04009c00d00100008f
:020000040000fa
:0400a000d00100008b
:020000040000fa
:0400a400d001000087
:020000040000fa
:0400a800d001000083
:020000040000fa
:0400ac00d00100007f
:020000040000fa
:0400b000d00100007b
:020000040000fa
:0400b400d001000077
:020000040000fa
:0400b800d001000073
:020000040000fa
:0400bc00d00100006f
:020000040000fa
:0400c000d00100006b
:020000040000fa
:0400c400d001000067
:020000040000fa
:0400c800d001000063
:020000040000fa
:0400cc00d00100005f
:020000040000fa
:0400d000d00100005b
:020000040000fa
:0400d400d001000057
:020000040000fa
:0400d800d001000053
:020000040000fa
:04010800d001000022
:020000040000fa
:04010c00d00100001e
:020000040000fa
:04011000d00100001a
:020000040000fa
:04011400d001000016
:020000040000fa
:04011800d001000012
:020000040000fa
:04011c00d00100000e
:020000040000fa
:04012000d00100000a
:020000040000fa
:04012400d001000006
:020000040000fa
:04012800d001000002
:020000040000fa
:04012c00d0010000fe
:020000040000fa
:04013000d0010000fa
:020000040000fa
:040134005c03000068
:020000040000fa
:04013800d0010000f2
:020000040000fa
:04013c00d0010000ee
:020000040000fa
:04014000d0010000ea
:020000040000fa
:04014400d0010000e6
:020000040000fa
:04014800d0010000e2
:020000040000fa
:04014c00d0010000de
:020000040000fa
:04015000d0010000da
:020000040000fa
:04015400d0010000d6
:020000040000fa
:04015800d0010000d2
:020000040000fa
:04015c00d0010000ce
:020000040000fa
:04016000d0010000ca
:020000040000fa
:04016400d0010000c6
:020000040000fa
:04016800d0010000c2
:020000040000fa
:04016c00d0010000be
:020000040000fa
:04017000d0010000ba
:020000040000fa
:04017400d0010000b6
:020000040000fa
:04017800d0010000b2
:020000040000fa
:04017c00d0010000ae
:020000040000fa
:04018000d0010000aa
:020000040000fa
:04018400d0010000a6
:020000040000fa
:04018800c8010000aa
:020000040000fa
:04018c00d00100009e
:020000040000fa
:04019000d00100009a
:020000040000fa
:04019400d001000096
:020000040000fa
:04019800d001000092
:020000040000fa
:04019c00d00100008e
:020000040000fa
:0401a000d00100008a
:020000040000fa
:0401a400d001000086
:020000040000fa
:0401a800d001000082
:020000040000fa
:0401ac00d00100007e
:020000040000fa
:0401b000d00100007a
:020000040000fa
:0401b400d001000076
:020000040000fa
:0401b800d001000072
:020000040000fa
:0401bc00d00100006e
:020000040000fa
:0401c000d00100006a
:020000040000fa
:0401c400d001000066
:020000040000fa
:0401c800d001000062
:020000040000fa
:0401cc00d00100005e
:020000040000fa
:0401d000d00100005a
:020000040000fa
:0401d400d001000056
:020000040000fa
:0401d800d001000052
:020000040000fa
:10020000ef8020000eff20000e018800000000009b
:10021000000020000000e000020032000001200089
:1002200020028800140007005f0007000000e000c3
:1002300003003a00803f2000010020000200370048
:100240000000200001002000810f7000010032003a
:1002500014000700000020000000e000020032004f
:100260000000020000000000de01020000000000ab
:100270000040da000000fe004440a9008000200099
:100280000000e0000300320000002000a001880010
:100290004440a800000006008a1f78008b1f7800e9
:1002a0000000060091018800800478000000eb0047
:1002b0001a003700e284440032a0b4009905ba0065
:1002c000e284440032a0b4009906ba00e2844400fb
:1002d00032a0b4000006eb00476fde00fd07b2005d
:1002e000636ce10003003a00ebff07000000eb0045
:1002f0000a003700606ce10004003a00005deb008a
:100300008b05e900fdff3e00040037006168e10055
:10031000010032000086eb000b00070019c7ba008d
:100320001905ba000e04e00003003a000a00e000dc
:10033000e0ff3a0000000600fe07b2009e018800c0
:100340008a047800f5ff3700395dba008b05e900b3
:100350000c003200295dba008b05e900080032006c
:100360000c00e00003003a00e284440032a0b40034
:10037000f5ff370019ddba008b05e900faff3a00f6
:100380008904e800e184440032a0b40000000600c3
:100390000000fa008700a9000080fa000040060073
:0c03a0000040da000000fe000000050034
:020000040000fa
:1003ac00524500004c4f00004a3a0000000000008b
:020000040000fa
:1003bc000000fa003c00070071000700500020000c
:1003cc005c000700601d2800600007002800070083
:1003dc0020c0b30004e8b70030c0b30005e8b70094
:1003ec0050c0b30002e8b70090c0b30003e8b700f8
:1003fc0050c0b30000e8b7000168ef00240007000c
:10040c0004c8bf000043b00006e8b70005c8bf0031
:10041c000043b00007e8b700a0c3b30008e8b7007a
:10042c0002c8bf000043b00009e8b70003c8bf0012
:10043c000043b0000ae8b700a0c3b3000be8b70054
:10044c0001c8bf000043b0000ce8b70000c8bf00f3
:10045c000043b0000de8b7000e68ef004004200028
:10046c00340007006080200038000700e4ff3700ec
:10047c000000fa000021ef0000002800100888009e
:10048c0020002000200888000080fa0000000600f0
:10049c000000fa008460a9008c60a80005e1a800a7
:1004ac000080fa00000006000000fa00d422ef00e1
:1004bc0000000000d622ef0000000000d302a900cb
:1004cc0000000000ce22ef0000000000d022ef0060
:1004dc0000000000cda2a80000000000cdc2a800c2
:1004ec0000000000e022ef0000000000e222ef001c
:1004fc0000000000de82a90000000000dea2a900be
:10050c0000000000dec2a80000000000c822ef00be
:10051c0000000000ca22ef0000000000c622ef001d
:10052c00000000000080eb00401588000080fa00fd
:10053c00000006000008b3000c03020000000000dd
:10054c00300302000000000000000600811f78004c
:10055c0080007800314078000004e0000600320092
:10056c000c03020000000000460302000000000023
:10057c00b002040000000000cf007800000006006c
:10058c000200080006000000f0002000e803020052
:10059c0000000000000320003003020000000000f7
:1005ac00000000000c03020000000000800320008b
:1005bc0030030200000000000c03020000000000e9
:1005cc008000200030030200000000000c03020039
:1005dc0000000000100020003003020000000000aa
:1005ec000c03020000000000600020003003020039
:1005fc00000000000c03020000000000f0002000ce
:10060c00300302000000000000000600e082a90098
:10061c0000000000c6e2ef0000000000e0a2a8000d
:10062c0000000000d502a80000000000c8e2af00e6
:10063c001c03040000000000d502a900000000000b
:10064c00e0a2a90000000000c662ef00000000005c
:10065c0000000600e082a90000000000e0a2a90052
:10066c0000000000d502a80000000000c8e2b7009e
:10067c0000000000d502a9000000000000000600e8
:10068c00e082a80000000000e0a2a9000000000029
:10069c00d502a80000000000c8e2b700000000006e
:1006ac00d502a9000000000000000600801f7800a1
:1006bc000168ec00a00020000148e3001e003a0095
:1006cc000168ef000068ec00600020000048e300c7
:1006dc0019003a000068ef000368ec00a00020004d
:1006ec000348e30014003a000368ef000268ec00d2
:1006fc00600020000248e3000f003a000268ef009f
:10070c000268ec00600020000248e3000a003a0096
:10071c000268ef00200020000448e30009003200ca
:10072c000568ec00a00020000548e30002003a0038
:10073c000568ef000468ec008460a9004f007800a5
:10074c00004006000568ec00400020000548e3006e
:10075c00f9ff3a000468ef000568ef00a2030400fb
:10076c0000000000801f7800811f7800821f780035
:10077c0020742000610420007205200001487800dc
:10078c00024878004227a8004f017800cf0078007b
:10079c004f00780000000600801f7800811f780051
:1007ac00a10020000000eb000000e900feff3a0071
:1007bc008100e900fbff3a00cf0078004f00780081
:1007cc0000000600811f7800612620008100e900ee
:1007dc00feff3a000000e900fbff3a00cf00780072
:0407ec000000060003
:020000040000fa
:1007f000000800000e0000000000000000000000e3
:020000040000fa
:0200000401f009
:04000000e0b9000063
:020000040000fa
:0200000401f009
:04000400ff7f00007a
:020000040000fa
:0200000401f009
:04000800feff0000f7
:020000040000fa
:0200000401f009
:04001400ffffff00eb
:00000001FF
